:020000040800F2
:10000000002000209D020008E9020008E902000823
:1000100000000000000000000000000000000000E0
:10002000000000000000000000000000E9020008DD
:100030000000000000000000E9020008E9020008DA
:10004000E9020008E9020008E9020008E9020008E4
:10005000E9020008E9020008E9020008E9020008D4
:10006000E9020008E9020008E9020008E9020008C4
:10007000E9020008E9020008E90200083D01000861
:10008000E9020008E902000800000000E902000897
:10009000E9020008E9020008E9020008E902000894
:1000A000E9020008E9020008E9020008E902000884
:1000B000E902000800000000E9020008000000005A
:1000C0005FF808F180B582B000AF78600A1CFB1CB5
:1000D0001A70FB1C1B78002B06D0084B074A51698D
:1000E0007A680A435A6106E0044B044A5269796807
:1000F000C9430A405A61BD4602B080BD00100240AB
:1001000080B582B000AF78600A1CFB1C1A70FB1C23
:100110001B78002B06D0084B074AD1697A680A433E
:10012000DA6106E0044B044AD2697968C9430A409F
:10013000DA61BD4602B080BD0010024080B500AF5C
:100140008023DB05181C012100F034FC031C012B6B
:1001500019D18023DB05181C012100F06BFC0B4B2F
:100160001B889AB20A4B9A4202D9084B094A1A8054
:10017000064B1B889BB2064A9B188022D205101C96
:10018000191C00F0BDFBBD4680BDC046000000202C
:1001900080BB000080BBFFFF80B500AF80239B02C7
:1001A000181C0121FFF78EFF01200121FFF7A8FF96
:1001B000344B00221A81334B00221A80314B324AD1
:1001C0005A60304B00225A808023DA052D4B101CD8
:1001D000191C00F02BFA2D4B00221A822B4B6022A7
:1001E0001A802A4B00229A81284B01225A80274BE1
:1001F000274A9A608023DA05244B101C191C00F052
:10020000ADFA8023DB05181C002100F085FB80235C
:10021000DB05181C012100F00DFC8023DB05181CF8
:100220000121012200F0A2FB1A4B0F221A70194B78
:1002300001229A70174B00225A70164B181C00F0BE
:1002400009FC154B01221A60134B02221A71124B42
:1002500000229A71104B00225A719023DA050E4B3E
:10026000101C191C00F0F8F89023DB05181C002165
:10027000022200F08DF98023DB05181C012100F01B
:100280004DFAFEE71C000020FFA50E00080000202C
:1002900080BB000004000020280000200C48854698
:1002A000002103E00B4B5B58435004310A480B4BD1
:1002B00042189A42F6D30A4A02E00023136004323D
:1002C000084B9A42F9D300F011F8FFF765FFFEE7FB
:1002D00000200020000B0008000000200400002087
:1002E0000400002030000020FEE7000080B500AFD1
:1002F0001B4B1B4A126801210A431A60184B184A0B
:100300005168184A0A405A60154B154A1168164A36
:100310000A401A60124B124A1168144A0A401A60C5
:100320000F4B0F4A5168124A0A405A600C4B0C4A54
:10033000D26A0F218A43DA62094B094A116B0D4ACE
:100340000A401A63064B064A526B01218A435A63DC
:10035000034B00229A6000F00FF8BD4680BDC046F6
:10036000001002400CB8FFF8FFFFF6FEFFFFFBFF96
:10037000FFFFC0FFACFEFFFF80B582B000AF0023DF
:100380007B6000233B60314B304A12688021490278
:100390000A431A602D4B1A6880239B0213403B606E
:1003A0007B6801337B603B68002B04D17A68A02313
:1003B000DB019A42EED1254B1A6880239B02134041
:1003C00002D001233B6001E000233B603B68012B2E
:1003D00038D11F4B11221A601C4B1C4A52685A60BC
:1003E0001A4B1A4A52685A60184B184A5168194AEF
:1003F0000A405A60154B154A5268882149030A433E
:100400005A60124B114A1268802149040A431A604B
:10041000C0460E4B1A6880239B041340F9D00B4B47
:100420000A4A526803218A435A60084B074A5268B5
:1004300002210A435A60C046044B5A680C231340F9
:10044000082BF9D1BD4602B080BDC0460010024065
:1004500000200240FFFFC0FF80B586B000AF78608B
:10046000396000237B6100233B610023FB60002394
:100470007B6185E07B690122101C9840031C3B6175
:100480003B681B683A691340FB60FA683B699A4213
:1004900073D13B681B79012B03D03B681B79022B7E
:1004A00038D17B689B687A6952000321081C904010
:1004B000021CD2431A407B689A607B689A683B684A
:1004C0005B79191C7B695B00081C9840031C1A436C
:1004D0007B689A607B689B889BB27A6992B20121A3
:1004E000081C9040021C92B2D24392B213409AB2BE
:1004F0007B689A807B689B889AB23B689B79191CC1
:100500007B699BB2081C9840031C9BB213439AB2B0
:100510007B689A807B681B687A6952000321081CFB
:100520009040021CD2431A407B681A607B681A68AC
:100530003B681B79191C7B695B00081C9840031CF5
:100540001A437B681A607B68DB687A6992B2520052
:100550000321081C9040021CD2431A407B68DA60D9
:100560007B68DA683B68DB79191C7B695B00081CD7
:100570009840031C1A437B68DA607B6901337B6116
:100580007B690F2B00D875E7BD4606B080BDC0461D
:1005900090B585B000AF7860BB1C19807B1C1A70C9
:1005A0000023FB600023BB607B1C1A78BB1C1988EE
:1005B00007230B409B00111C99400B1CFB60BB1CCC
:1005C0001B88DB089BB21A1CBB1C1B88DB089BB278
:1005D000191C7B6808318900CB58B91C0888072191
:1005E000014089000F20041C8C40211CC943194084
:1005F0007B6808329200D150BB1C1B88DB089BB281
:100600001A1C7B6808329200D258FB681343BB6007
:10061000BB1C1B88DB089BB21A1C7B68083292004B
:10062000B968D150BD4605B090BDC04680B584B014
:1006300000AF786039603B1C0E3300221A803B1CEF
:100640000E337A6812881A807A682D4B9A4208D045
:100650007A688023DB059A4203D07A68294B9A4254
:1006600010D13B1C0E333A1C0E32128870218A4383
:100670001A803B6859883B1C0E333A1C0E32128894
:100680000A431A807A68204B9A4210D03B1C0E33E2
:100690003A1C0E3211881D4A0A401A803B6819899B
:1006A0003B1C0E333A1C0E3212880A431A807B68B8
:1006B0003A1C0E3212881A803B685A687B68DA62EC
:1006C0003B681A887B681A857A680D4B9A420BD072
:1006D0007A680F4B9A4207D07A680E4B9A4203D041
:1006E0007A680D4B9A4204D13B689B7A1A1C7B684E
:1006F0001A867B6801229A82BD4604B080BDC0463E
:10070000002C01400004004000100040FFFCFFFFEF
:1007100000400140004401400048014080B582B0E3
:1007200000AF78600A1CFB1C1A70FB1C1B78002BA6
:1007300008D07B681B889BB2012213439AB27B6866
:100740001A8007E07B681B889BB2012293439AB210
:100750007B681A80BD4602B080BDC04680B584B0BB
:1007600000AF786039603B1C0A3300221A803B1CC2
:100770000E3300221A803B1C0C3300221A807B6847
:100780001B8C9BB2012293439AB27B681A843B1C58
:100790000E337A68128C1A803B1C0C337A6892886C
:1007A0001A803B1C0A337A68128B1A803B1C0A336E
:1007B0003A1C0A32128870218A431A803B1C0A3381
:1007C0003A1C0A32128803218A431A803B6819882E
:1007D0003B1C0A333A1C0A3212880A431A803B1C1B
:1007E0000E333A1C0E32128802218A431A803B686B
:1007F00099893B1C0E333A1C0E3212880A431A8028
:100800003B6859883B1C0E333A1C0E3212880A434F
:100810001A807A68344B9A420BD07A68334B9A42EA
:1008200007D07A68324B9A4203D07A68314B9A42A9
:1008300043D13B1C0E333A1C0E32128808218A43E6
:100840001A803B68D9893B1C0E333A1C0E32128841
:100850000A431A803B1C0E333A1C0E3212880421C4
:100860008A431A803B6899883B1C0E333A1C0E322F
:1008700012880A431A803B1C0C333A1C0C32118834
:100880001D4A0A401A803B1C0C333A1C0C3211885A
:100890001A4A0A401A803B68198A3B1C0C333A1CDE
:1008A0000C3212880A431A803B68598A3B1C0C336D
:1008B0003A1C0C3212880A431A807B683A1C0C32AC
:1008C00012889A807B683A1C0A3212881A833B6825
:1008D0009A687B685A637B683A1C0E3212881A84C5
:1008E000BD4604B080BDC046002C01400040014020
:1008F0000044014000480140FFFEFFFFFFFDFFFFF5
:1009000080B582B000AF786039607B683A685A631E
:10091000BD4602B080BDC04680B584B000AF7860EF
:100920000A1CBB1C1A803B1C0E3300221A803B1C85
:100930000E337A68128B1A803B1C0E333A1C0E322F
:10094000128808218A431A803B1C0E33391C0E3151
:10095000BA1C098812880A431A807B683A1C0E3236
:1009600012881A83BD4604B080BDC04680B582B0EF
:1009700000AF7860BB1C19807B1C1A707B1C1B7835
:10098000002B09D07B689B899AB2BB1C1B88134340
:100990009AB27B689A810AE07B689B899BB2BA1CF9
:1009A0001288D24392B213409AB27B689A81BD46B4
:1009B00002B080BD80B584B000AF78600A1CBB1C5B
:1009C0001A803B1C0F3300221A703B1C0C33002290
:1009D0001A803B1C0A3300221A807B681B8A9AB259
:1009E0003B1C0C33B91C09880A401A807B689B8920
:1009F0009AB23B1C0A33B91C09880A401A803B1C76
:100A00000C331B88002B09D03B1C0A331B88002B9E
:100A100004D03B1C0F3301221A7003E03B1C0F3340
:100A200000221A703B1C0F331B78181CBD4604B003
:100A300080BDC04680B582B000AF78600A1CBB1C88
:100A40001A80BB1C1B88DB439AB27B681A82BD46A6
:100A500002B080BD80B584B000AF78600023FB6039
:100A60007B689B78002B3CD0244B7A6812789208E4
:100A7000D2B2C0329200D358FB607B681B781A1C3C
:100A800003231340DB00FF22101C9840031CDA43B1
:100A9000FB681340FB607B685B789A01FF231A4078
:100AA0007B681B78191C03230B40DB00111C994049
:100AB0000B1CFA681343FB60104B7A68127892089B
:100AC000D2B2C0329200F968D1500C4B7A681278D9
:100AD000111C1F220A400121081C9040021C1A60B0
:100AE00009E0064A7B681B78191C1F230B40012173
:100AF00099408023D150BD4604B080BD00E100E0A4
:040B00001027E001D9
:0400000508000000EF
:00000001FF
